{
    "_format": "hh-sol-artifact-1",
    "contractName": "Criptdle",
    "sourceName": "contracts/Criptdle.sol",
    "abi": [
        {
            "inputs": [],
            "stateMutability": "nonpayable",
            "type": "constructor"
        },
        {
            "inputs": [
                {
                    "internalType": "string",
                    "name": "_word",
                    "type": "string"
                }
            ],
            "name": "createWord",
            "outputs": [],
            "stateMutability": "nonpayable",
            "type": "function"
        },
        {
            "inputs": [],
            "name": "readWords",
            "outputs": [
                {
                    "internalType": "string[]",
                    "name": "",
                    "type": "string[]"
                }
            ],
            "stateMutability": "view",
            "type": "function"
        }
    ],
    "bytecode": "0x608060405234801561001057600080fd5b506100596040518060400160405280601681526020017f6465706c6f79616e646f20656c20636f6e747261746f0000000000000000000081525061005e60201b61018d1760201c565b6101e1565b6100fa81604051602401610072919061015f565b6040516020818303038152906040527f41304fac000000000000000000000000000000000000000000000000000000007bffffffffffffffffffffffffffffffffffffffffffffffffffffffff19166020820180517bffffffffffffffffffffffffffffffffffffffffffffffffffffffff83818316178352505050506100fd60201b60201c565b50565b60008151905060006a636f6e736f6c652e6c6f679050602083016000808483855afa5050505050565b600061013182610181565b61013b818561018c565b935061014b81856020860161019d565b610154816101d0565b840191505092915050565b600060208201905081810360008301526101798184610126565b905092915050565b600081519050919050565b600082825260208201905092915050565b60005b838110156101bb5780820151818401526020810190506101a0565b838111156101ca576000848401525b50505050565b6000601f19601f8301169050919050565b6106e0806101f06000396000f3fe608060405234801561001057600080fd5b50600436106100365760003560e01c8063017f72231461003b5780630dcd66ef14610057575b600080fd5b6100556004803603810190610050919061035a565b610075565b005b61005f6100b4565b60405161006c9190610496565b60405180910390f35b6000819080600181540180825580915050600190039060005260206000200160009091909190915090805190602001906100b092919061024f565b5050565b60606000805480602002602001604051908101604052809291908181526020016000905b828210156101845783829060005260206000200180546100f7906105d8565b80601f0160208091040260200160405190810160405280929190818152602001828054610123906105d8565b80156101705780601f1061014557610100808354040283529160200191610170565b820191906000526020600020905b81548152906001019060200180831161015357829003601f168201915b5050505050815260200190600101906100d8565b50505050905090565b610223816040516024016101a191906104b8565b6040516020818303038152906040527f41304fac000000000000000000000000000000000000000000000000000000007bffffffffffffffffffffffffffffffffffffffffffffffffffffffff19166020820180517bffffffffffffffffffffffffffffffffffffffffffffffffffffffff8381831617835250505050610226565b50565b60008151905060006a636f6e736f6c652e6c6f679050602083016000808483855afa5050505050565b82805461025b906105d8565b90600052602060002090601f01602090048101928261027d57600085556102c4565b82601f1061029657805160ff19168380011785556102c4565b828001600101855582156102c4579182015b828111156102c35782518255916020019190600101906102a8565b5b5090506102d191906102d5565b5090565b5b808211156102ee5760008160009055506001016102d6565b5090565b6000610305610300846104ff565b6104da565b90508281526020810184848401111561031d57600080fd5b610328848285610596565b509392505050565b600082601f83011261034157600080fd5b81356103518482602086016102f2565b91505092915050565b60006020828403121561036c57600080fd5b600082013567ffffffffffffffff81111561038657600080fd5b61039284828501610330565b91505092915050565b60006103a78383610424565b905092915050565b60006103ba82610540565b6103c48185610563565b9350836020820285016103d685610530565b8060005b8581101561041257848403895281516103f3858261039b565b94506103fe83610556565b925060208a019950506001810190506103da565b50829750879550505050505092915050565b600061042f8261054b565b6104398185610574565b93506104498185602086016105a5565b61045281610699565b840191505092915050565b60006104688261054b565b6104728185610585565b93506104828185602086016105a5565b61048b81610699565b840191505092915050565b600060208201905081810360008301526104b081846103af565b905092915050565b600060208201905081810360008301526104d2818461045d565b905092915050565b60006104e46104f5565b90506104f0828261060a565b919050565b6000604051905090565b600067ffffffffffffffff82111561051a5761051961066a565b5b61052382610699565b9050602081019050919050565b6000819050602082019050919050565b600081519050919050565b600081519050919050565b6000602082019050919050565b600082825260208201905092915050565b600082825260208201905092915050565b600082825260208201905092915050565b82818337600083830152505050565b60005b838110156105c35780820151818401526020810190506105a8565b838111156105d2576000848401525b50505050565b600060028204905060018216806105f057607f821691505b602082108114156106045761060361063b565b5b50919050565b61061382610699565b810181811067ffffffffffffffff821117156106325761063161066a565b5b80604052505050565b7f4e487b7100000000000000000000000000000000000000000000000000000000600052602260045260246000fd5b7f4e487b7100000000000000000000000000000000000000000000000000000000600052604160045260246000fd5b6000601f19601f830116905091905056fea2646970667358221220dbda39d104523eee6d98abfa46296463ecfaa1352da40170664ce52722c9d65064736f6c63430008040033",
    "linkReferences": {},
    "deployedLinkReferences": {}
}