{
  "_format": "hh-sol-artifact-1",
  "contractName": "Criptdle",
  "sourceName": "contracts/Criptdle.sol",
  "abi": [
    {
      "inputs": [],
      "stateMutability": "nonpayable",
      "type": "constructor"
    },
    {
      "inputs": [
        {
          "internalType": "string",
          "name": "_word",
          "type": "string"
        }
      ],
      "name": "createWord",
      "outputs": [],
      "stateMutability": "nonpayable",
      "type": "function"
    },
    {
      "inputs": [],
      "name": "getWord",
      "outputs": [
        {
          "internalType": "string",
          "name": "",
          "type": "string"
        }
      ],
      "stateMutability": "view",
      "type": "function"
    },
    {
      "inputs": [
        {
          "internalType": "string",
          "name": "_word",
          "type": "string"
        }
      ],
      "name": "isUsed",
      "outputs": [
        {
          "internalType": "bool",
          "name": "",
          "type": "bool"
        }
      ],
      "stateMutability": "view",
      "type": "function"
    },
    {
      "inputs": [],
      "name": "owner",
      "outputs": [
        {
          "internalType": "address",
          "name": "",
          "type": "address"
        }
      ],
      "stateMutability": "view",
      "type": "function"
    },
    {
      "inputs": [],
      "name": "readWords",
      "outputs": [
        {
          "internalType": "string[]",
          "name": "",
          "type": "string[]"
        }
      ],
      "stateMutability": "view",
      "type": "function"
    },
    {
      "inputs": [
        {
          "internalType": "string",
          "name": "_word",
          "type": "string"
        }
      ],
      "name": "useWord",
      "outputs": [],
      "stateMutability": "nonpayable",
      "type": "function"
    },
    {
      "inputs": [
        {
          "internalType": "string",
          "name": "",
          "type": "string"
        }
      ],
      "name": "words",
      "outputs": [
        {
          "internalType": "string",
          "name": "text",
          "type": "string"
        },
        {
          "internalType": "bool",
          "name": "used",
          "type": "bool"
        }
      ],
      "stateMutability": "view",
      "type": "function"
    }
  ],
  "bytecode": "0x60806040523480156200001157600080fd5b50336000806101000a81548173ffffffffffffffffffffffffffffffffffffffff021916908373ffffffffffffffffffffffffffffffffffffffff160217905550620000a2604051806060016040528060228152602001620010e56022913960008054906101000a900473ffffffffffffffffffffffffffffffffffffffff16620000f360201b620005911760201c565b620000ed6040518060400160405280601681526020017f6465706c6f79616e646f20656c20636f6e747261746f000000000000000000008152506200019960201b6200062d1760201c565b620003a6565b6200019582826040516024016200010c929190620002db565b6040516020818303038152906040527f319af333000000000000000000000000000000000000000000000000000000007bffffffffffffffffffffffffffffffffffffffffffffffffffffffff19166020820180517bffffffffffffffffffffffffffffffffffffffffffffffffffffffff83818316178352505050506200023c60201b60201c565b5050565b6200023981604051602401620001b09190620002b7565b6040516020818303038152906040527f41304fac000000000000000000000000000000000000000000000000000000007bffffffffffffffffffffffffffffffffffffffffffffffffffffffff19166020820180517bffffffffffffffffffffffffffffffffffffffffffffffffffffffff83818316178352505050506200023c60201b60201c565b50565b60008151905060006a636f6e736f6c652e6c6f679050602083016000808483855afa5050505050565b62000270816200032b565b82525050565b600062000283826200030f565b6200028f81856200031a565b9350620002a18185602086016200035f565b620002ac8162000395565b840191505092915050565b60006020820190508181036000830152620002d3818462000276565b905092915050565b60006040820190508181036000830152620002f7818562000276565b905062000308602083018462000265565b9392505050565b600081519050919050565b600082825260208201905092915050565b600062000338826200033f565b9050919050565b600073ffffffffffffffffffffffffffffffffffffffff82169050919050565b60005b838110156200037f57808201518184015260208101905062000362565b838111156200038f576000848401525b50505050565b6000601f19601f8301169050919050565b610d2f80620003b66000396000f3fe608060405234801561001057600080fd5b506004361061007d5760003560e01c80637f4536281161005b5780637f453628146100ec5780638da5cb5b146101085780639b7bfee514610126578063ed40a8c8146101575761007d565b8063017f7223146100825780630dcd66ef1461009e578063578d714b146100bc575b600080fd5b61009c600480360381019061009791906107fa565b610175565b005b6100a661022a565b6040516100b391906109b7565b60405180910390f35b6100d660048036038101906100d191906107fa565b610303565b6040516100e391906109d9565b60405180910390f35b610106600480360381019061010191906107fa565b61033b565b005b6101106103b4565b60405161011d919061099c565b60405180910390f35b610140600480360381019061013b91906107fa565b6103d8565b60405161014e929190610a46565b60405180910390f35b61015f6104a7565b60405161016c91906109f4565b60405180910390f35b60405180604001604052808281526020016000151581525060028260405161019d9190610985565b908152602001604051809103902060008201518160000190805190602001906101c79291906106ef565b5060208201518160010160006101000a81548160ff0219169083151502179055509050506001819080600181540180825580915050600190039060005260206000200160009091909190915090805190602001906102269291906106ef565b5050565b60606001805480602002602001604051908101604052809291908181526020016000905b828210156102fa57838290600052602060002001805461026d90610bc7565b80601f016020809104026020016040519081016040528092919081815260200182805461029990610bc7565b80156102e65780601f106102bb576101008083540402835291602001916102e6565b820191906000526020600020905b8154815290600101906020018083116102c957829003601f168201915b50505050508152602001906001019061024e565b50505050905090565b60006002826040516103159190610985565b908152602001604051809103902060010160009054906101000a900460ff169050919050565b6040518060400160405280828152602001600115158152506002826040516103639190610985565b9081526020016040518091039020600082015181600001908051906020019061038d9291906106ef565b5060208201518160010160006101000a81548160ff02191690831515021790555090505050565b60008054906101000a900473ffffffffffffffffffffffffffffffffffffffff1681565b60028180516020810182018051848252602083016020850120818352809550505050505060009150905080600001805461041190610bc7565b80601f016020809104026020016040519081016040528092919081815260200182805461043d90610bc7565b801561048a5780601f1061045f5761010080835404028352916020019161048a565b820191906000526020600020905b81548152906001019060200180831161046d57829003601f168201915b5050505050908060010160009054906101000a900460ff16905082565b60606000600180549050426104bc9190610c2a565b9050600181815481106104f8577f4e487b7100000000000000000000000000000000000000000000000000000000600052603260045260246000fd5b90600052602060002001805461050d90610bc7565b80601f016020809104026020016040519081016040528092919081815260200182805461053990610bc7565b80156105865780601f1061055b57610100808354040283529160200191610586565b820191906000526020600020905b81548152906001019060200180831161056957829003601f168201915b505050505091505090565b61062982826040516024016105a7929190610a16565b6040516020818303038152906040527f319af333000000000000000000000000000000000000000000000000000000007bffffffffffffffffffffffffffffffffffffffffffffffffffffffff19166020820180517bffffffffffffffffffffffffffffffffffffffffffffffffffffffff83818316178352505050506106c6565b5050565b6106c38160405160240161064191906109f4565b6040516020818303038152906040527f41304fac000000000000000000000000000000000000000000000000000000007bffffffffffffffffffffffffffffffffffffffffffffffffffffffff19166020820180517bffffffffffffffffffffffffffffffffffffffffffffffffffffffff83818316178352505050506106c6565b50565b60008151905060006a636f6e736f6c652e6c6f679050602083016000808483855afa5050505050565b8280546106fb90610bc7565b90600052602060002090601f01602090048101928261071d5760008555610764565b82601f1061073657805160ff1916838001178555610764565b82800160010185558215610764579182015b82811115610763578251825591602001919060010190610748565b5b5090506107719190610775565b5090565b5b8082111561078e576000816000905550600101610776565b5090565b60006107a56107a084610a9b565b610a76565b9050828152602081018484840111156107bd57600080fd5b6107c8848285610b85565b509392505050565b600082601f8301126107e157600080fd5b81356107f1848260208601610792565b91505092915050565b60006020828403121561080c57600080fd5b600082013567ffffffffffffffff81111561082657600080fd5b610832848285016107d0565b91505092915050565b600061084783836108e2565b905092915050565b61085881610b3d565b82525050565b600061086982610adc565b6108738185610aff565b93508360208202850161088585610acc565b8060005b858110156108c157848403895281516108a2858261083b565b94506108ad83610af2565b925060208a01995050600181019050610889565b50829750879550505050505092915050565b6108dc81610b4f565b82525050565b60006108ed82610ae7565b6108f78185610b10565b9350610907818560208601610b94565b61091081610ce8565b840191505092915050565b600061092682610ae7565b6109308185610b21565b9350610940818560208601610b94565b61094981610ce8565b840191505092915050565b600061095f82610ae7565b6109698185610b32565b9350610979818560208601610b94565b80840191505092915050565b60006109918284610954565b915081905092915050565b60006020820190506109b1600083018461084f565b92915050565b600060208201905081810360008301526109d1818461085e565b905092915050565b60006020820190506109ee60008301846108d3565b92915050565b60006020820190508181036000830152610a0e818461091b565b905092915050565b60006040820190508181036000830152610a30818561091b565b9050610a3f602083018461084f565b9392505050565b60006040820190508181036000830152610a60818561091b565b9050610a6f60208301846108d3565b9392505050565b6000610a80610a91565b9050610a8c8282610bf9565b919050565b6000604051905090565b600067ffffffffffffffff821115610ab657610ab5610cb9565b5b610abf82610ce8565b9050602081019050919050565b6000819050602082019050919050565b600081519050919050565b600081519050919050565b6000602082019050919050565b600082825260208201905092915050565b600082825260208201905092915050565b600082825260208201905092915050565b600081905092915050565b6000610b4882610b5b565b9050919050565b60008115159050919050565b600073ffffffffffffffffffffffffffffffffffffffff82169050919050565b6000819050919050565b82818337600083830152505050565b60005b83811015610bb2578082015181840152602081019050610b97565b83811115610bc1576000848401525b50505050565b60006002820490506001821680610bdf57607f821691505b60208210811415610bf357610bf2610c8a565b5b50919050565b610c0282610ce8565b810181811067ffffffffffffffff82111715610c2157610c20610cb9565b5b80604052505050565b6000610c3582610b7b565b9150610c4083610b7b565b925082610c5057610c4f610c5b565b5b828206905092915050565b7f4e487b7100000000000000000000000000000000000000000000000000000000600052601260045260246000fd5b7f4e487b7100000000000000000000000000000000000000000000000000000000600052602260045260246000fd5b7f4e487b7100000000000000000000000000000000000000000000000000000000600052604160045260246000fd5b6000601f19601f830116905091905056fea2646970667358221220657996fa17c93f2852f299806b9855686eaa01c3c957861e8e79fe6f272d36c664736f6c634300080400334c612061646472657373206f776e65722064656c20636f6e747261746f2065733a20",
  "linkReferences": {},
  "deployedLinkReferences": {}
}